:020000040800F2
:100000000050002009340008810B0008870B00080D
:100010008D0B0008930B0008990B000800000000EE
:100020000000000000000000000000009F0B00081E
:10003000AB0B000800000000B70B0008C30B000862
:10004000513400085134000851340008513400087C
:10005000513400085134000851340008513400086C
:10006000513400085134000851340008513400085C
:1000700051340008D10B0008E50B0008513400088A
:10008000513400085134000851340008513400083C
:10009000513400085134000851340008513400082C
:1000A000513400085134000851340008513400081C
:1000B000513400085134000851340008513400080C
:1000C00051340008513400085134000851340008FC
:1000D000F90B00085134000851340008513400086D
:1000E0000D0C0008513400085134000800000000D5
:1000F0000000000000000000000000000000000000
:0C01000000000000000000005FF808F1A3
:10010C000348044B834202D0034B03B1184770479A
:10011C001400002014000020000000000548064BCD
:10012C001B1AD90F01EBA301491002D0034B03B1E9
:10013C001847704714000020140000200000000035
:10014C0010B5064C237843B9FFF7DAFF044B13B113
:10015C000448AFF300800123237010BD140000206D
:10016C0000000000AC34000808B5054B1BB1054974
:10017C000548AFF30080BDE80840FFF7CFBF00BFD4
:10018C000000000018000020AC34000880B582B0DC
:10019C0000AF104B5B690F4A43F0010353610D4BE9
:1001AC005B6903F001037B607B68002200210D205A
:1001BC0001F0A3F80D2001F0BCF8002200210E2064
:1001CC0001F09BF80E2001F0B4F800BF0837BD46D3
:1001DC0080BD00BF0010024080B588B000AF07F1B1
:1001EC00100300221A605A609A60DA60384B9B69DF
:1001FC00374A43F010039361354B9B6903F01003AE
:10020C00FB60FB68324B9B69314A43F020039361DE
:10021C002F4B9B6903F02003BB60BB682C4B9B6985
:10022C002B4A43F004039361294B9B6903F00403AD
:10023C007B607B68264B9B69254A43F008039361DE
:10024C00234B9B6903F008033B603B6800224FF48F
:10025C000051204801F0AAFC00221C211E4801F08C
:10026C00A5FC4FF400533B6101237B610023BB6170
:10027C000223FB6107F110031946164801F012FB2B
:10028C001C233B6101237B610023BB610323FB61C6
:10029C0007F110031946104801F004FB4FF40063FA
:1002AC003B610E4B7B610023BB6107F110031946C8
:1002BC000B4801F0F7FA00220021282001F01DF86C
:1002CC00282001F036F800BF2037BD4680BD00BFA6
:1002DC000010024000100140000801400000111005
:1002EC00000C014080B483B000AF7860034B012256
:1002FC001A7000BF0C37BD4680BC70470000002050
:10030C0080B483B000AF0346FB7197F907305B00F4
:10031C005BB223F055035AB2FB795B105BB203F06E
:10032C0055035BB213435BB2FB71FB799B105BB261
:10033C0003F033035AB297F907309B005BB223F0FA
:10034C0033035BB213435BB2FB71FB791B09DBB26A
:10035C005AB297F907301B015BB213435BB2DBB2A5
:10036C0018460C37BD4680BC7047000080B584B081
:10037C0000AF0023FB600BE1FA6813469B001344AB
:10038C00884AD35CFB72FA6813469B001344013312
:10039C00844AD35CBB72FA6813469B001344023345
:1003AC00804AD35C7B72FA6813469B001344033378
:1003BC007C4AD35C3B72FA6813469B0013440433AB
:1003CC00784AD35CFB7197F90A301B015AB27B7ADD
:1003DC001B115BB203F008035BB213435BB2DBB2DD
:1003EC001846FFF78DFF034618466F4AFB68134407
:1003FC001B78194600F01F03D8B26C4A0B46DB0081
:10040C005B1A134402461A7097F90B30DB015AB28F
:10041C00BB7A5B105BB203F078035BB213435BB245
:10042C00DBB21846FFF76CFF034618465E4AFB68C2
:10043C0013441B78194600F01F03D8B25B4A0B46D5
:10044C00DB005B1A1344013302461A70FB7A9B00E3
:10045C00DBB223F00703DBB21846FFF751FF03466C
:10046C001846514AFB6813441B78194600F01F03C9
:10047C00D8B24E4A0B46DB005B1A134402330246D9
:10048C001A70FB7ADB105BB203F018035AB297F9BF
:10049C0007305B015BB213435BB2DBB21846FFF76C
:1004AC002FFF03461846404AFB6813441B78194635
:1004BC0000F01F03D8B23D4A0B46DB005B1A134415
:1004CC00033302461A70FB7923F00703DBB218469C
:1004DC00FFF716FF03461846334AFB6813441B7894
:1004EC00194600F01F03D8B2304A0B46DB005B1AEA
:1004FC001344043302461A703B7ADB00DBB2184615
:10050C00FFF7FEFE03461846274AFB6813441B7888
:10051C00194600F01F03D8B2244A0B46DB005B1AC5
:10052C001344053302461A7097F909309B015AB2ED
:10053C003B7A9B105BB203F038035BB213435BB2A4
:10054C00DBB21846FFF7DCFE03461846164AFB687A
:10055C0013441B78194600F01F03D8B2134A0B46FC
:10056C00DB005B1A1344063302461A707B7A03F0E5
:10057C004003002B14BF01230023D9B20A4AFB68A5
:10058C0013441B781A460A4B9954FB680133FB60E1
:10059C00FB682E2B7FF7F0AE00BF00BF1037BD46B7
:1005AC0080BD00BF30000020D43400081C010020A6
:1005BC006802002080B58AB000AF00F041FD00F069
:1005CC0029F9FFF709FEFFF7E1FD00F06DF900F0E6
:1005DC00A1F900F06FFB874B01221A7040214FF4F8
:1005EC00807000F037FCFFF7C1FE0021824800F05C
:1005FC0049FC00237B626CE000233B6263E0002338
:10060C00FB615AE07D493A6A1346DB009B1ACA1813
:10061C007B6A13441B7818463A6A1346DB009B1A14
:10062C009A1CFB69D1187A6A13469B0013440D334C
:10063C00DB01CA18724903469B0003441944FB6949
:10064C000B4419786C4B9954396A0B46DB005B1AD6
:10065C00991CFB69C818796A0B469B000B440C3338
:10066C00DB01C118644B9A5C634B5A543A6A1346CB
:10067C00DB009B1A9A1CFB69D0187A6A13469B0004
:10068C0013440B33DB01C2185B4B595C5A4B995426
:10069C00396A0B46DB005B1A991CFB69C818796A2E
:1006AC000B469B000B440A33DB0103445249895C23
:1006BC00514AD154FB690133FB61FB69042BA1DD69
:1006CC003B6A01333B623B6A112B98DD7B6A013339
:1006DC007B627B6A062B8FDD0023BB6142E000232B
:1006EC007B6139E000233B6130E07B6903F112024E
:1006FC0042491346DB009B1ACA18BB6913441B788A
:10070C0018467B699B00DA1D3B691A44BB69193397
:10071C005B000133DB011A443A4903465B00034496
:10072C0019443B690B441978334B99547B699B00F2
:10073C00D91D3B691944BB6919331B020B442E4963
:10074C00895C2D4AD1543B6901333B613B69022BD7
:10075C00CBDD7B6901337B617B691C2BC2DDBB6903
:10076C000133BB61BB69062BB9DD0023FB6033E0B1
:10077C00254AFB6813441B78002B2AD00023BB604E
:10078C0024E000237B601BE0FA681346DB009B1A15
:10079C005A1C7B68D1187B68581CFA681346DB001E
:1007AC009B1AC218BB68DB0113441848BA68D20103
:1007BC0002440A441178104AD1547B6801337B609F
:1007CC007B68062BE0DDBB680133BB60BB68042B88
:1007DC00D7DDFB680133FB60FB68112BC8DD002201
:1007EC000021054800F07EFB4FF40051084801F051
:1007FC00F5F9F8E698220020980200201C01002050
:10080C0004350008A43500086802002004360008EE
:10081C000010014080B590B000AF07F118032822FA
:10082C000021184602F00FFE3B1D00221A605A6090
:10083C009A60DA601A610123BB614FF48033FB616B
:10084C0000233B620123BB6202237B634FF48033A2
:10085C00BB634FF4E013FB6307F11803184601F078
:10086C00F9F90346002B01D000F019F80F237B6037
:10087C000223BB600023FB604FF480633B610023C9
:10088C007B613B1D0221184601F066FC0346002BE0
:10089C0001D000F004F800BF4037BD4680BD80B4E5
:1008AC0000AF72B600BFFEE780B500AF174B184A19
:1008BC001A60164B4FF482725A60144B00229A60E5
:1008CC00124B0022DA60114B02221A610F4B0122EB
:1008DC005A610E4B4FF400729A610C4B1022DA6184
:1008EC000A4B00221A62094B00225A62074B002263
:1008FC009A62064B0A22DA62044801F093FD034621
:10090C00002B01D0FFF7CBFF00BF80BD9C22002045
:10091C000030014080B500AF164B174A1A60154BDA
:10092C0000225A60134B4FF480629A60114B0022E4
:10093C00DA60104B02221A610E4B01225A610D4BE8
:10094C004FF400729A610B4B00221A62094B002281
:10095C005A62084B00229A62064B0A22DA62054858
:10096C0001F060FD0346002B01D0FFF798FF00BF9C
:10097C0080BD00BFF42200200038004080B58AB052
:10098C0000AF786007F1180300221A605A609A6071
:10099C00DA607B681B68554A93424AD1544B9B6979
:1009AC00534A43F480539361514B9B6903F4805336
:1009BC007B617B694E4B9B694D4A43F00403936109
:1009CC004B4B9B6903F004033B613B69A023BB6168
:1009DC000223FB6103237B6207F118031946454888
:1009EC0000F060FF444B454A1A60434B10225A609A
:1009FC00414B00229A60404B8022DA603E4B002231
:100A0C001A613D4B00225A613B4B00229A613A4BD2
:100A1C000022DA61384800F0A7FC0346002B01D015
:100A2C00FFF73DFF7B68344A9A64334A7B68536214
:100A3C0057E07B681B68324A934252D12C4BDB69DE
:100A4C002B4A43F48043D361294BDB6903F4804385
:100A5C00FB60FB68264B9B69254A43F008039361B6
:100A6C00234B9B6903F00803BB60BB684FF4204326
:100A7C00BB610023FB6100233B6207F1180319469D
:100A8C00204800F00FFF204B204A1A601E4B00221A
:100A9C005A601D4B00229A601B4B8022DA601A4B65
:100AAC0000221A61184B00225A61174B00229A61DE
:100ABC00154B0022DA61144800F056FC0346002B5B
:100ACC0001D0FFF7ECFE7B680F4ADA640E4A7B68B4
:100ADC00536200220021242000F00FFC242000F09F
:100AEC0028FC00BF2837BD4680BD00BF0030014048
:100AFC0000100240000801404C230020300002404E
:100B0C0000380040000C01409023002044000240BB
:100B1C0080B485B000AF154B9B69144A43F00103B8
:100B2C009361124B9B6903F00103BB60BB680F4BD5
:100B3C00DB690E4A43F08053D3610C4BDB6903F045
:100B4C0080537B607B680A4B5B68FB60FB6823F01F
:100B5C00E063FB60FB6843F00073FB60044AFB68D6
:100B6C00536000BF1437BD4680BC70470010024074
:100B7C000000014080B400AFFEE780B400AFFEE798
:100B8C0080B400AFFEE780B400AFFEE780B400AFE6
:100B9C00FEE780B400AF00BFBD4680BC704780B498
:100BAC0000AF00BFBD4680BC704780B400AF00BF33
:100BBC00BD4680BC704780B500AF00F087FA00BF1F
:100BCC0080BD000080B500AF024800F037FD00BFCB
:100BDC0080BD00BF4C23002080B500AF024800F060
:100BEC002DFD00BF80BD00BF9023002080B500AF5D
:100BFC00024802F03FF800BF80BD00BFF422002085
:100C0C0080B500AF114B1B78002B19D0104801F0A8
:100C1C00F1FF0F4801F00AFF0E4B1B690D4A43F41C
:100C2C00804313610B4B1B690A4A23F48043136105
:100C3C00074801F0F7FBEB220749054801F02CFDB2
:100C4C004FF4006000F0E4FF00BF80BD982200204C
:100C5C00F4220020001002403000002080B400AFCD
:100C6C0000BFBD4680BC704780B582B000AF034664
:100C7C00FB7100F055F900F06BF9FB79184600F0A8
:100C8C0097F900F059F900BF0837BD4680BD80B513
:100C9C0082B000AF0346FB7100F042F900F064F93A
:100CAC00FB79184600F084F900F046F900BF0837CC
:100CBC00BD4680BD80B500AF00F062F9012000F0A8
:100CCC00B3F900F069F9322000F0AEF9FD20FFF71E
:100CDC00CBFF1220FFF7DBFFAE20FFF7C5FFB320E1
:100CEC00FFF7C2FF9120FFF7D2FFCA20FFF7BCFF2E
:100CFC003F20FFF7CCFFA220FFF7B6FF0020FFF745
:100D0C00C6FFA120FFF7B0FF0020FFF7C0FFA02017
:100D1C00FFF7AAFF1420FFF7BAFF1120FFF7B7FF68
:100D2C00B520FFF7A1FF0020FFF7B1FFAB20FFF7C5
:100D3C009BFF0120FFF7ABFFB420FFF795FFA0202E
:100D4C00FFF7A5FFFD20FFF7A2FFC120FFF78CFFE7
:100D5C00FF20FFF79CFFC720FFF786FF0F20FFF750
:100D6C0096FFB920FFF780FFB120FFF77DFFE2204F
:100D7C00FFF78DFFD120FFF777FF8220FFF787FF6A
:100D8C002020FFF784FFBB20FFF76EFF1F20FFF72B
:100D9C007EFFB620FFF768FF0820FFF778FFBE2024
:100DAC00FFF762FF0720FFF772FFA620FFF75CFF3B
:100DBC00A920FFF759FF0A2000F036F9AF20FFF702
:100DCC0053FF322000F030F900BF80BD90B583B0E6
:100DDC0000AF0446084611461A462346FB710346EB
:100DEC00BB710B467B7113463B711520FFF73CFF23
:100DFC00FB791C33DBB21846FFF749FFBB791C3378
:100E0C00DBB21846FFF743FF7520FFF72DFF7B7908
:100E1C001846FFF73CFF3B791846FFF738FF00BF39
:100E2C000C37BD4690BD80B582B000AF786039609C
:100E3C005C20FFF719FF00F073F800F095F83968A3
:100E4C00786800F0D3F800F077F800BF0837BD469B
:100E5C0080BD000080B483B000AF03460A46FB801F
:100E6C001346BB80054AFB881380054ABB88138058
:100E7C0000BF0C37BD4680BC704700BF0A00002085
:100E8C000800002080B485B000AF78600B46FB7082
:100E9C0097F903301B015AB297F9033013435BB235
:100EAC00FB720E4B1B881A460D4B1B8802FB03F37F
:100EBC00DA0F13445B10FB6004E07B685A1C7A6009
:100ECC00FA7A1A70FB685A1EFA60002BF5D100BF33
:100EDC0000BF1437BD4680BC704700BF080000201F
:100EEC000A00002080B582B000AF78600B467B8092
:100EFC0013463B807F2300223F210020FFF766FF33
:100F0C003B88DB011A467B8813447A6813444FF400
:100F1C0000511846FFF787FF00BF0837BD4680BD5C
:100F2C0080B500AF00221021024800F03FFE00BF48
:100F3C0080BD00BF0008014080B500AF0122102128
:100F4C00024800F033FE00BF80BD00BF0008014026
:100F5C0080B500AF00220421024800F027FE00BF3C
:100F6C0080BD00BF0008014080B500AF0122042104
:100F7C00024800F01BFE00BF80BD00BF000801400E
:100F8C0080B500AF00220821024800F00FFE00BF20
:100F9C0080BD00BF0008014080B500AF01220821D0
:100FAC00024800F003FE00BF80BD00BF00080140F6
:100FBC0080B582B000AF0346FB710A4B00221A7059
:100FCC00FB1D01221946084801F0B0FA00BF054B81
:100FDC001B78DBB2002BFAD000BF00BF0837BD4630
:100FEC0080BD00BF000000209C22002080B582B094
:100FFC0000AF786039600A4B00221A703B689BB2D4
:10100C001A467968074801F091FA00BF044B1B7827
:10101C00DBB2002BFAD000BF00BF0837BD4680BD45
:10102C00000000209C22002080B582B000AF7860C8
:10103C00786800F067F800BF0837BD4680BD000037
:10104C0080B500AF084B1B68074A43F010031360D0
:10105C00032000F047F90F2000F008F8FFF758FDC7
:10106C000023184680BD00BF0020024080B582B02E
:10107C0000AF7860124B1A68124B1B7819464FF46C
:10108C007A73B3FBF1F3B2FBF3F3184600F05FF99C
:10109C000346002B01D001230EE07B680F2B0AD8EE
:1010AC00002279684FF0FF3000F027F9064A7B6880
:1010BC001360002300E0012318460837BD4680BDAD
:1010CC0004000020100000200C00002080B400AFB1
:1010DC00054B1B781A46054B1B681344034A1360D7
:1010EC0000BFBD4680BC704710000020D4230020F8
:1010FC0080B400AF024B1B681846BD4680BC7047DD
:10110C00D423002080B584B000AF7860FFF7F0FFE7
:10111C00B8607B68FB60FB68B3F1FF3F05D00A4BFE
:10112C001B781A46FB681344FB6000BFFFF7E0FF17
:10113C000246BB68D31AFA689A42F7D800BF00BFC0
:10114C001037BD4680BD00BF1000002080B485B0B4
:10115C0000AF78607B6803F00703FB600C4BDB6827
:10116C00BB60BA684FF6FF031340BB60FB681A0202
:10117C00BB68134343F0BF6343F40033BB60044AC2
:10118C00BB68D36000BF1437BD4680BC704700BF3E
:10119C0000ED00E080B400AF044BDB681B0A03F0E9
:1011AC0007031846BD4680BC704700BF00ED00E049
:1011BC0080B483B000AF0346FB7197F90730002B66
:1011CC000BDBFB7903F01F02064997F907305B092B
:1011DC00012000FA02F241F8232000BF0C37BD4673
:1011EC0080BC704700E100E080B483B000AF0346E0
:1011FC003960FB7197F90730002B0ADB3B68DAB2D8
:10120C000C4997F907301201D2B20B4483F8002332
:10121C000AE03B68DAB20849FB7903F00F03043BA0
:10122C001201D2B20B441A7600BF0C37BD4680BCFB
:10123C00704700BF00E100E000ED00E080B489B031
:10124C0000AFF860B9607A60FB6803F00703FB61DC
:10125C00FB69C3F10703042B28BF0423BB61FB69A3
:10126C000433062B02D9FB69033B00E000237B61AE
:10127C004FF0FF32BB6902FA03F3DA43BB681A4042
:10128C007B699A404FF0FF317B6901FA03F3D94334
:10129C007B680B40134318462437BD4680BC70470F
:1012AC0080B582B000AF78607B68013BB3F1807F82
:1012BC0001D301230FE00A4A7B68013B53600F21E5
:1012CC004FF0FF30FFF790FF054B00229A60044B64
:1012DC0007221A60002318460837BD4680BD00BFA0
:1012EC0010E000E080B582B000AF78607868FFF75E
:1012FC002DFF00BF0837BD4680BD80B586B000AF5E
:10130C000346B9607A60FB7300237B61FFF742FFF1
:10131C0078617A68B9687869FFF790FF024697F9A7
:10132C000F3011461846FFF75FFF00BF1837BD4658
:10133C0080BD80B582B000AF0346FB7197F90730D2
:10134C001846FFF735FF00BF0837BD4680BD80B596
:10135C0082B000AF78607868FFF7A2FF03461846AA
:10136C000837BD4680BD000080B485B000AF786002
:10137C000023FB607B68002B01D1012343E07B68D9
:10138C001B681A46224B1344224AA2FB03231B0957
:10139C009A007B681A647B681F4ADA637B680222B6
:1013AC0083F821207B681B681B68FB60FB6823F4B7
:1013BC007F5323F03003FB607B685A687B689B6823
:1013CC001A437B68DB681A437B681B691A437B688A
:1013DC005B691A437B689B691A437B68DB6913431F
:1013EC00FA681343FB607B681B68FA681A607B68B9
:1013FC0000229A637B68012283F821207B680022FB
:10140C0083F82020002318461437BD4680BC704753
:10141C00F8FFFDBFCDCCCCCC0000024080B586B02F
:10142C0000AFF860B9607A603B600023FB75FB6825
:10143C0093F82030012B01D102234AE0FB680122F2
:10144C0083F82020FB6893F82130012B3AD1FB68FC
:10145C00022283F82120FB6800229A63FB681B6838
:10146C001A68FB681B6822F001021A603B687A68F4
:10147C00B968F86800F0E8F9FB68DB6A002B08D063
:10148C00FB681B681A68FB681B6842F00E021A6046
:10149C000FE0FB681B681A68FB681B6822F00402EB
:1014AC001A60FB681B681A68FB681B6842F00A022A
:1014BC001A60FB681B681A68FB681B6842F0010223
:1014CC001A6005E0FB68002283F820200223FB75DC
:1014DC00FB7D18461837BD4680BD80B485B000AF83
:1014EC0078600023FB737B6893F82130022B08D0C3
:1014FC007B6804229A637B68002283F820200123F6
:10150C0020E07B681B681A687B681B6822F00E025F
:10151C001A607B681B681A687B681B6822F00102E2
:10152C001A607B681A6C7B68DB6B012101FA02F292
:10153C005A607B68012283F821207B68002283F8A3
:10154C002020FB7B18461437BD4680BC704700003A
:10155C0080B584B000AF78600023FB737B6893F890
:10156C002130022B05D07B6804229A630123FB7384
:10157C0051E07B681B681A687B681B6822F00E02BE
:10158C001A607B681B681A687B681B6822F0010272
:10159C001A607B681B68224A934229D07B681B68BF
:1015AC00204A934222D07B681B681F4A93421AD070
:1015BC007B681B681D4A934212D07B681B681C4ACF
:1015CC0093420AD07B681B681A4A934202D14FF4AB
:1015DC0080130EE04FF080730BE04FF4803308E083
:1015EC004FF4805305E04FF4807302E0102300E0C9
:1015FC000123114A53607B68012283F821207B6808
:10160C00002283F820207B685B6B002B03D07B6867
:10161C005B6B78689847FB7B18461037BD4680BDDE
:10162C00080002401C00024030000240440002400E
:10163C00580002406C0002400000024080B584B0AB
:10164C0000AF78607B68DB6B1B68FB607B681B689A
:10165C001B68BB607B681B6C04229A40FB681340C0
:10166C00002B4FD0BB6803F00403002B4AD07B68DF
:10167C001B681B6803F02003002B07D17B681B68D9
:10168C001A687B681B6822F004021A607B681B686E
:10169C00664A934229D07B681B68654A934222D0E4
:1016AC007B681B68634A93421AD07B681B68624A4A
:1016BC00934212D07B681B68604A93420AD07B68C5
:1016CC001B685F4A934202D14FF480030EE04FF047
:1016DC0080630BE04FF4802308E04FF4804305E077
:1016EC004FF4806302E0402300E00423554A53602A
:1016FC007B68DB6A002B00F094807B68DB6A78687F
:10170C0098478EE07B681B6C02229A40FB68134062
:10171C00002B56D0BB6803F00203002B51D07B6822
:10172C001B681B6803F02003002B0BD17B681B6824
:10173C001A687B681B6822F00A021A607B68012217
:10174C0083F821207B681B68384A934229D07B6838
:10175C001B68374A934222D07B681B68354A9342F8
:10176C001AD07B681B68344A934212D07B681B6882
:10177C00324A93420AD07B681B68314A934202D1A9
:10178C004FF400130EE04FF000730BE04FF40033F6
:10179C0008E04FF4005305E04FF4007302E02023FF
:1017AC0000E00223274A53607B68002283F8202044
:1017BC007B689B6A002B34D07B689B6A786898475F
:1017CC002FE07B681B6C08229A40FB681340002BAF
:1017DC0028D0BB6803F00803002B23D07B681B6860
:1017EC001A687B681B6822F00E021A607B681A6C00
:1017FC007B68DB6B012101FA02F25A607B680122E3
:10180C009A637B68012283F821207B68002283F88D
:10181C0020207B681B6B002B04D07B681B6B7868CB
:10182C00984700BF00BF1037BD4680BD080002407E
:10183C001C000240300002404400024058000240AC
:10184C006C0002400000024080B485B000AFF8602C
:10185C00B9607A603B60FB681A6CFB68DB6B01213A
:10186C0001FA02F25A60FB681B683A685A60FB681E
:10187C005B68102B08D1FB681B687A689A60FB6860
:10188C001B68BA68DA6007E0FB681B68BA689A6084
:10189C00FB681B687A68DA6000BF1437BD4680BCF1
:1018AC007047000080B48BB000AF786039600023C3
:1018BC007B6200233B6269E101227B6A02FA03F33B
:1018CC00FB613B681B68FA691340BB61BA69FB6931
:1018DC009A4240F058813B685B689A4A93425ED0CA
:1018EC00984A934275D8984A934258D0964A934254
:1018FC006FD8964A934252D0944A934269D8944AEC
:10190C0093424CD0924A934263D8924A934246D027
:10191C00904A93425DD8122B2AD8122B59D801A287
:10192C0052F823F0AB190008851900089719000824
:10193C00D9190008DF190008DF190008DF190008A1
:10194C00DF190008DF190008DF190008DF1900088B
:10195C00DF190008DF190008DF190008DF1900087B
:10196C00DF190008DF1900088D190008A1190008FB
:10197C00794A934213D02CE03B68DB683B6229E048
:10198C003B68DB6804333B6224E03B68DB6808336C
:10199C003B621FE03B68DB680C333B621AE03B6840
:1019AC009B68002B02D104233B6213E03B689B68CD
:1019BC00012B05D108233B627B68FA691A6109E0A7
:1019CC0008233B627B68FA695A6103E000233B629F
:1019DC0000E000BFBB69FF2B01D87B6801E07B688E
:1019EC0004337B61BB69FF2B02D87B6A9B0002E04E
:1019FC007B6A083B9B003B617B691A680F213B6942
:101A0C0001FA03F3DB431A40396A3B6901FA03F329
:101A1C001A437B691A603B685B6803F08053002BA8
:101A2C0000F0B1804D4B9B694C4A43F0010393612C
:101A3C004A4B9B6903F00103BB60BB68484A7B6A55
:101A4C009B08023352F82330FB607B6A03F00303DC
:101A5C009B000F2202FA03F3DB43FA681340FB608E
:101A6C007B68404A934213D07B683F4A93420DD027
:101A7C007B683E4A934207D07B683D4A934201D132
:101A8C00032306E0042304E0022302E0012300E028
:101A9C0000237A6A02F0030292009340FA6813431F
:101AAC00FB602F497B6A9B080233FA6841F82320BC
:101ABC003B685B6803F48033002B06D02D4B1A680F
:101ACC002C49BB6913430B6006E02A4B1A68BB69AF
:101ADC00DB43284913400B603B685B6803F400331D
:101AEC00002B06D0234B5A682249BB6913434B6029
:101AFC0006E0204B5A68BB69DB431E4913404B6020
:101B0C003B685B6803F48013002B06D0194B9A6872
:101B1C001849BB6913438B6006E0164B9A68BB6986
:101B2C00DB43144913408B603B685B6803F4001380
:101B3C00002B21D00F4BDA680E49BB691343CB60E5
:101B4C0021E000BF00003210000031100000221014
:101B5C0000002110000012100000111000100240B3
:101B6C000000014000080140000C01400010014041
:101B7C0000140140000401400B4BDA68BB69DB43E5
:101B8C0009491340CB607B6A01337B623B681A685E
:101B9C007B6A22FA03F3002B7FF48EAE00BF00BFEA
:101BAC002C37BD4680BC70470004014080B483B024
:101BBC0000AF78600B467B8013467B707B78002BE4
:101BCC0003D07A887B681A6103E07B881A047B68EF
:101BDC001A6100BF0C37BD4680BC704780B485B01D
:101BEC0000AF78600B467B807B68DB68FB607A8893
:101BFC00FB6813401A04FB68D9437B880B401A43DB
:101C0C007B681A6100BF1437BD4680BC704700006A
:101C1C0080B582B000AF0346FB80084B5A69FB8845
:101C2C001340002B06D0054AFB885361FB881846ED
:101C3C0000F006F800BF0837BD4680BD0004014027
:101C4C0080B483B000AF0346FB8000BF0C37BD46A9
:101C5C0080BC704780B586B000AF78607B68002B85
:101C6C0001D1012372E27B681B6803F00103002B96
:101C7C0000F08780924B5B6803F00C03042B0CD0B4
:101C8C008F4B5B6803F00C03082B12D18C4B5B68F9
:101C9C0003F48033B3F5803F0BD1894B1B6803F4FD
:101CAC000033002B6CD07B685B68002B68D1012360
:101CBC004CE27B685B68B3F5803F06D1804B1B68B8
:101CCC007F4A43F4803313602EE07B685B68002B03
:101CDC000CD17B4B1B687A4A23F480331360784B0E
:101CEC001B68774A23F4802313601DE07B685B68D4
:101CFC00B3F5A02F0CD1724B1B68714A43F48023AF
:101D0C0013606F4B1B686E4A43F4803313600BE017
:101D1C006B4B1B686A4A23F480331360684B1B6857
:101D2C00674A23F4802313607B685B68002B13D015
:101D3C00FFF7DEF9386108E0FFF7DAF902463B6994
:101D4C00D31A642B01D9032300E25D4B1B6803F407
:101D5C000033002BF0D014E0FFF7CAF9386108E02B
:101D6C00FFF7C6F902463B69D31A642B01D903234A
:101D7C00ECE1534B1B6803F40033002BF0D100E073
:101D8C0000BF7B681B6803F00203002B63D04C4B35
:101D9C005B6803F00C03002B0BD0494B5B6803F022
:101DAC000C03082B1CD1464B5B6803F48033002BCF
:101DBC0016D1434B1B6803F00203002B05D07B6844
:101DCC001B69012B01D00123C0E13D4B1B6823F0A3
:101DDC00F8027B685B69DB00394913430B603AE01E
:101DEC007B681B69002B20D0364B01221A60FFF751
:101DFC007FF9386108E0FFF77BF902463B69D31A9B
:101E0C00022B01D90323A1E12D4B1B6803F0020324
:101E1C00002BF0D02A4B1B6823F0F8027B685B691F
:101E2C00DB00274913430B6015E0264B00221A6098
:101E3C00FFF75EF9386108E0FFF75AF902463B6993
:101E4C00D31A022B01D9032380E11D4B1B6803F02D
:101E5C000203002BF0D17B681B6803F00803002BF6
:101E6C003AD07B689B69002B19D0174B01221A6062
:101E7C00FFF73EF9386108E0FFF73AF902463B6993
:101E8C00D31A022B01D9032360E10D4B5B6A03F0DB
:101E9C000203002BF0D0012000F0A6FA1CE00A4B44
:101EAC0000221A60FFF724F938610FE0FFF720F9E0
:101EBC0002463B69D31A022B08D9032346E100BF23
:101ECC00001002400000424280044242924B5B6A86
:101EDC0003F00203002BE9D17B681B6803F00403B9
:101EEC00002B00F0A6800023FB758B4BDB6903F005
:101EFC008053002B0DD1884BDB69874A43F080530C
:101F0C00D361854BDB6903F08053BB60BB68012355
:101F1C00FB75824B1B6803F48073002B18D17F4B2D
:101F2C001B687E4A43F480731360FFF7E1F8386155
:101F3C0008E0FFF7DDF802463B69D31A642B01D9A0
:101F4C00032303E1754B1B6803F48073002BF0D063
:101F5C007B68DB68012B06D16F4B1B6A6E4A43F022
:101F6C00010313622DE07B68DB68002B0CD16A4BFC
:101F7C001B6A694A23F001031362674B1B6A664AAA
:101F8C0023F0040313621CE07B68DB68052B0CD187
:101F9C00614B1B6A604A43F0040313625E4B1B6A7D
:101FAC005D4A43F0010313620BE05B4B1B6A5A4A18
:101FBC0023F001031362584B1B6A574A23F00403A6
:101FCC0013627B68DB68002B15D0FFF791F8386142
:101FDC000AE0FFF78DF802463B69D31A41F28832CA
:101FEC00934201D90323B1E04B4B1B6A03F002036C
:101FFC00002BEED014E0FFF77BF838610AE0FFF716
:10200C0077F802463B69D31A41F28832934201D9E0
:10201C0003239BE0404B1B6A03F00203002BEED121
:10202C00FB7D012B05D13C4BDB693B4A23F08053F4
:10203C00D3617B68DB69002B00F08780364B5B68D3
:10204C0003F00C03082B61D07B68DB69022B46D1B3
:10205C00334B00221A60FFF74BF8386108E0FFF7AA
:10206C0047F802463B69D31A022B01D903236DE0D2
:10207C00294B1B6803F00073002BF0D17B681B6AA3
:10208C00B3F5803F08D1244B5B6823F400327B68A6
:10209C009B68214913434B601F4B5B6823F47412FC
:1020AC007B68196A7B685B6A0B431B4913434B6063
:1020BC001B4B01221A60FFF71BF8386108E0FFF791
:1020CC0017F802463B69D31A022B01D903233DE0D2
:1020DC00114B1B6803F00073002BF0D035E0104B54
:1020EC0000221A60FFF704F8386108E0FFF700F8E7
:1020FC0002463B69D31A022B01D9032326E0064B77
:10210C001B6803F00073002BF0D11EE07B68DB69C9
:10211C00012B07D1012319E0001002400070004090
:10212C00600042420B4B5B68FB60FB6803F480323F
:10213C007B681B6A9A4206D1FB6803F470127B68B9
:10214C005B6A9A4201D0012300E00023184618373D
:10215C00BD4680BD0010024080B584B000AF7860F1
:10216C0039607B68002B01D10123D0E06A4B1B68DE
:10217C0003F007033A689A4210D9674B1B6823F0A7
:10218C00070265493B6813430B60634B1B6803F004
:10219C0007033A689A4201D00123B8E07B681B68B8
:1021AC0003F00203002B20D07B681B6803F00403B0
:1021BC00002B05D0594B5B68584A43F4E0635360DD
:1021CC007B681B6803F00803002B05D0534B5B683E
:1021DC00524A43F460535360504B5B6823F0F00257
:1021EC007B689B684D4913434B607B681B6803F00D
:1021FC000103002B40D07B685B68012B07D1474B58
:10220C001B6803F40033002B15D101237FE07B689E
:10221C005B68022B07D1414B1B6803F00073002B4A
:10222C0009D1012373E03D4B1B6803F00203002B23
:10223C0001D101236BE0394B5B6823F003027B680F
:10224C005B68364913434B60FEF752FFF8600AE0B7
:10225C00FEF74EFF0246FB68D31A41F288329342D6
:10226C0001D9032353E02D4B5B6803F00C027B6810
:10227C005B689B009A42EBD1274B1B6803F007036A
:10228C003A689A4210D2244B1B6823F00702224969
:10229C003B6813430B60204B1B6803F007033A6841
:1022AC009A4201D0012332E07B681B6803F00403DF
:1022BC00002B08D0194B5B6823F4E0627B68DB6869
:1022CC00164913434B607B681B6803F00803002B13
:1022DC0009D0124B5B6823F460527B681B69DB00EE
:1022EC000E4913434B6000F021F802460B4B5B6820
:1022FC001B0903F00F030A49CB5C22FA03F3094ACA
:10230C001360094B1B681846FEF7B0FE00231846F5
:10231C001037BD4680BD00BF0020024000100240B7
:10232C0084380008040000200C00002090B48AB00F
:10233C0000AF294B3C1D0FCB84E80F0040F201236A
:10234C003B800023FB610023BB6100237B620023E5
:10235C007B6100233B62214B5B68FB61FB6903F0F3
:10236C000C03042B02D0082B03D02BE01C4B3B623C
:10237C002BE0FB699B0C03F00F0328333B4413F851
:10238C00243C7B61FB6903F48033002B12D0134B8C
:10239C005B685B0C03F0010328333B4413F8283CC7
:1023AC00BB617B690E4A03FB02F2BB69B2FBF3F320
:1023BC007B6204E07B690B4A02FB03F37B627B6A62
:1023CC003B6202E0064B3B6200BF3B6A1846283773
:1023DC00BD4690BC704700BFC434000800100240DA
:1023EC0000127A0000093D0080B485B000AF78601F
:1023FC000A4B1B680A4AA2FB03235B0A7A6802FB9E
:10240C0003F3FB6000BFFB685A1EFA60002BF9D186
:10241C0000BF00BF1437BD4680BC704704000020CD
:10242C00D34D621080B582B000AF78607B68002B12
:10243C0001D1012376E07B685B6A002B08D17B68B5
:10244C005B68B3F5827F09D07B680022DA6105E016
:10245C007B6800221A617B6800225A617B6800222B
:10246C009A627B6893F85130DBB2002B06D17B6803
:10247C00002283F850207868FEF780FA7B680222ED
:10248C0083F851207B681B681A687B681B6822F0F4
:10249C0040021A607B685B6803F482727B689B68FD
:1024AC0003F404431A437B68DB6803F400631A43A8
:1024BC007B681B6903F002031A437B685B6903F0BA
:1024CC0001031A437B689B6903F400731A437B680E
:1024DC00DB6903F038031A437B681B6A03F0800343
:1024EC0042EA03017B689B6A03F400527B681B6819
:1024FC000A431A607B689B691A0C7B681B6802F0A4
:10250C0004025A607B681B68DA697B681B6822F4DA
:10251C000062DA617B6800225A657B68012283F8CD
:10252C005120002318460837BD4680BD80B586B0C3
:10253C0000AFF860B9601346FB800023FB75FB68A5
:10254C0093F85030012B01D102239BE0FB68012250
:10255C0083F85020FB6893F85130DBB2012B02D08A
:10256C000223FB7589E0BB68002B02D0FB88002B93
:10257C0002D10123FB7580E0FB68032283F8512014
:10258C00FB6800225A65FB68BA681A63FB68FA8814
:10259C009A86FB68FA88DA86FB6800229A63FB68E5
:1025AC0000225A64FB6800221A64FB6800229A8796
:1025BC00FB680022DA87FB689B68B3F5004F0FD1EC
:1025CC00FB681B681A68FB681B6822F040021A60E3
:1025DC00FB681B681A68FB681B6842F480421A602F
:1025EC00FB689B6C294ADA62FB689B6C284A9A62EE
:1025FC00FB689B6C274A1A63FB689B6C00225A632E
:10260C00FB68986CFB681B6B1946FB681B680C33EA
:10261C001A46FB68DB8E9BB2FEF700FF0346002BCD
:10262C000CD0FB685B6D43F01002FB685A6501230C
:10263C00FB75FB68012283F851201EE0FB681B68C8
:10264C001B6803F04003402B07D0FB681B681A681B
:10265C00FB681B6842F040021A60FB681B685A68F2
:10266C00FB681B6842F020025A60FB681B685A68C2
:10267C00FB681B6842F002025A60FB68002283F878
:10268C005020FB7D18461837BD4680BD933000089E
:10269C00B92E0008E730000880B586B000AFF860AE
:1026AC00B9601346FB800023FB75FB689B68002B0D
:1026BC0010D1FB685B68B3F5827F0BD1FB680422F9
:1026CC0083F85120FB88BA68B968F86800F0ACF858
:1026DC0003469FE0FB6893F85030012B01D1022395
:1026EC0098E0FB68012283F85020FB6893F8513086
:1026FC00DBB2012B02D00223FB7586E0BB68002BFA
:10270C0002D0FB88002B02D10123FB757DE0FB6816
:10271C00042283F85120FB6800225A65FB68BA68D2
:10272C009A63FB68FA889A87FB68FA88DA87FB68F1
:10273C0000221A64FB6800225A64FB6800229A8605
:10274C00FB680022DA86FB689B68B3F5004F0FD15B
:10275C00FB681B681A68FB681B6822F040021A6051
:10276C00FB681B681A68FB681B6822F480421A60BD
:10277C00FB68DB6C294ADA62FB68DB6C284A9A62DC
:10278C00FB68DB6C274A1A63FB68DB6C00225A631C
:10279C00FB68D86CFB681B680C331946FB689B6B99
:1027AC001A46FB68DB8F9BB2FEF738FE0346002B04
:1027BC000CD0FB685B6D43F01002FB685A6501237B
:1027CC00FB75FB68012283F851201EE0FB681B6837
:1027DC001B6803F04003402B07D0FB681B681A688A
:1027EC00FB681B6842F040021A60FB681B685A6861
:1027FC00FB681B6842F020025A60FB681B685A6831
:10280C00FB681B6842F001025A60FB68002283F8E7
:10281C005020FB7D18461837BD4680BDAF300008F0
:10282C005F2F0008E730000880B586B000AFF86075
:10283C00B9607A607B800023FB75FB6893F850309D
:10284C00012B01D10223E3E0FB68012283F8502025
:10285C00FB6893F85130BB75FB685B683B61BB7DD3
:10286C00012B0DD03B69B3F5827F06D1FB689B68C9
:10287C00002B02D1BB7D042B02D00223FB75C2E0DE
:10288C00BB68002B05D07B68002B02D07B88002B0B
:10289C0002D10123FB75B6E0FB6893F85130DBB233
:1028AC00042B03D0FB68052283F85120FB6800221F
:1028BC005A65FB68BA681A63FB687A889A86FB6863
:1028CC007A88DA86FB687A689A63FB687A889A87D2
:1028DC00FB687A88DA87FB6800221A64FB6800229E
:1028EC005A64FB6893F85130DBB2042B08D1FB68B7
:1028FC00DB6C494ADA62FB68DB6C484A9A6207E097
:10290C00FB68DB6C464ADA62FB68DB6C454A9A6210
:10291C00FB68DB6C444A1A63FB68DB6C00225A636D
:10292C00FB68D86CFB681B680C331946FB689B6B07
:10293C001A46FB68DB8F9BB2FEF770FD0346002B3B
:10294C000CD0FB685B6D43F01002FB685A650123E9
:10295C00FB75FB68012283F8512054E0FB681B686F
:10296C005A68FB681B6842F001025A60FB689B6C5A
:10297C000022DA62FB689B6C00229A62FB689B6CFB
:10298C0000221A63FB689B6C00225A63FB68986CEC
:10299C00FB681B6B1946FB681B680C331A46FB68FB
:1029AC00DB8E9BB2FEF73AFD0346002B0CD0FB6886
:1029BC005B6D43F01002FB685A650123FB75FB68E5
:1029CC00012283F851201EE0FB681B681B6803F092
:1029DC004003402B07D0FB681B681A68FB681B6818
:1029EC0042F040021A60FB681B685A68FB681B685F
:1029FC0042F020025A60FB681B685A68FB681B682F
:102A0C0042F002025A60FB68002283F85020FB7DE2
:102A1C0018461837BD4680BDAF3000085F2F000840
:102A2C00CB30000805300008E730000880B586B0D0
:102A3C0000AF78600023FB756A4B1B686A4AA2FBE7
:102A4C0003235B0A642202FB03F3FB60FB683B611C
:102A5C007B681B685A687B681B6822F020025A60EE
:102A6C007B681B685B6803F08003002B17D07B68C6
:102A7C005E4A5A643B69002B06D17B685B6D43F060
:102A8C0040027B685A6508E03B69013B3B617B680F
:102A9C0093F85130DBB2072BECD1FB683B617B68C0
:102AAC001B685B6803F04003002B17D07B68504A0F
:102ABC001A643B69002B06D17B685B6D43F04002C6
:102ACC007B685A6508E03B69013B3B617B6893F886
:102ADC005130DBB2072BECD1FB683B617B681B6888
:102AEC005B6803F00203002B2ED07B689B6C002BE1
:102AFC002AD07B689B6C00225A637B689B6C1846BF
:102B0C00FEF7EBFC0346002B02D07B6840225A6593
:102B1C007B681B685A687B681B6822F002025A604B
:102B2C003B69002B06D17B685B6D43F040027B68F0
:102B3C005A6509E03B69013B3B617B681B689B68FC
:102B4C0003F00203002BEBD07B681B685B6803F07F
:102B5C000103002B22D07B68DB6C002B1ED07B6822
:102B6C00DB6C00225A637B68DB6C1846FEF7B5FC05
:102B7C000346002B02D07B6840225A657B681B6899
:102B8C001A687B681B6822F040021A607B681B681D
:102B9C005A687B681B6822F001025A607B6800222D
:102BAC00DA877B680022DA867B685B6D402B02D16A
:102BBC000123FB7502E07B6800225A650023BB6091
:102BCC007B681B68DB68BB607B681B689B68BB60B1
:102BDC00BB687B68012283F85120FB7D18461837AF
:102BEC00BD4680BD04000020F1197605CD330008E8
:102BFC004133000880B584B000AF78600023FB73CC
:102C0C007B689B6C002B0FD07B689B6C1846FEF787
:102C1C0064FC0346002B07D07B685B6D43F010020D
:102C2C007B685A650123FB737B68DB6C002B0FD030
:102C3C007B68DB6C1846FEF750FC0346002B07D074
:102C4C007B685B6D43F010027B685A650123FB7354
:102C5C007B681B685A687B681B6822F003025A6009
:102C6C007B68012283F85120FB7B18461037BD4648
:102C7C0080BD000080B588B000AF78607B681B68B1
:102C8C005B68FB617B681B689B68BB61BB699B09CC
:102C9C0003F00103002B0FD1BB6903F00103002BE0
:102CAC000AD0FB699B0903F00103002B04D07B685D
:102CBC001B6C78689847BEE0BB695B0803F00103A6
:102CCC00002B0AD0FB69DB0903F00103002B04D0B5
:102CDC007B685B6C78689847ADE0BB695B0903F077
:102CEC000103002B06D1BB699B0903F00103002BE8
:102CFC0000F0A180FB695B0903F00103002B00F0DD
:102D0C009A80BB699B0903F00103002B23D07B68DD
:102D1C0093F85130DBB2032B11D07B685B6D43F021
:102D2C0004027B685A6500237B617B681B68DB6847
:102D3C007B617B681B689B687B617B690BE0002374
:102D4C003B617B681B68DB683B617B681B689B682D
:102D5C003B613B696FE0BB695B0903F00103002B2E
:102D6C0014D07B685B6D43F001027B685A650023CD
:102D7C00FB607B681B689B68FB607B681B681A6840
:102D8C007B681B6822F040021A60FB687B685B6DF5
:102D9C00002B4FD07B681B685A687B681B6822F03D
:102DAC00E0025A607B68012283F85120FB6903F032
:102DBC000203002B04D1FB6903F00103002B34D078
:102DCC007B681B685A687B681B6822F003025A6098
:102DDC007B68DB6C002B11D07B68DB6C174A5A6369
:102DEC007B68DB6C1846FEF7B3FB0346002B05D063
:102DFC007B685B6D43F040027B685A657B689B6C1B
:102E0C00002B16D07B689B6C0C4A5A637B689B6CBE
:102E1C001846FEF79DFB0346002B0AD07B685B6DC2
:102E2C0043F040027B685A6503E0786800F035F89F
:102E3C0000E000BF00BF2037BD4680BD2731000831
:102E4C0080B483B000AF786000BF0C37BD4680BC47
:102E5C00704780B483B000AF786000BF0C37BD46BC
:102E6C0080BC704780B483B000AF786000BF0C3773
:102E7C00BD4680BC704780B483B000AF786000BFA3
:102E8C000C37BD4680BC704780B483B000AF78600F
:102E9C0000BF0C37BD4680BC704780B483B000AF18
:102EAC00786000BF0C37BD4680BC704780B586B0DB
:102EBC0000AF78607B685B6A7B61FEF719F938615B
:102ECC007B681B681B6803F02003202B3BD07B69BD
:102EDC001B685A687B691B6822F020025A607B6968
:102EEC001B685A687B691B6822F002025A603A69B7
:102EFC006421786900F000FA0346002B05D07B6949
:102F0C005B6D43F020027B695A657B699B68002BE3
:102F1C000AD10023FB607B691B68DB68FB607B6963
:102F2C001B689B68FB60FB687B690022DA867B6907
:102F3C00012283F851207B695B6D002B03D07869EB
:102F4C00FFF7ABFF02E07869FDF7CCF91837BD4607
:102F5C0080BD80B584B000AF78607B685B6AFB6035
:102F6C00FEF7C6F8B8607B681B681B6803F020038B
:102F7C00202B3BD0FB681B685A68FB681B6822F04F
:102F8C0020025A60FB689B68002B0DD1FB685B68C4
:102F9C00B3F5827F08D1FB681B685A68FB681B6815
:102FAC0022F003025A6007E0FB681B685A68FB6852
:102FBC001B6822F001025A60BA686421F86800F0BC
:102FCC0049F90346002B02D0FB6820225A65FB68A6
:102FDC000022DA87FB68012283F85120FB685B6DC5
:102FEC00002B03D0F868FFF758FF02E0F868FFF7F2
:102FFC0027FF1037BD4680BD80B584B000AF786028
:10300C007B685B6AFB60FEF773F8B8607B681B68D3
:10301C001B6803F02003202B2FD0FB681B685A6819
:10302C00FB681B6822F020025A60BA686421F868B9
:10303C0000F062F90346002B05D0FB685B6D43F092
:10304C002002FB685A65FB681B685A68FB681B68A2
:10305C0022F003025A60FB680022DA86FB68002229
:10306C00DA87FB68012283F85120FB685B6D002B2B
:10307C0003D0F868FFF711FF02E0F868FFF7E9FEEC
:10308C001037BD4680BD80B584B000AF78607B68DA
:10309C005B6AFB60F868FFF7E5FE00BF1037BD46C2
:1030AC0080BD80B584B000AF78607B685B6AFB60E4
:1030BC00F868FFF7E0FE00BF1037BD4680BD80B555
:1030CC0084B000AF78607B685B6AFB60F868FFF7E0
:1030DC00DBFE00BF1037BD4680BD80B584B000AFAD
:1030EC0078607B685B6AFB60FB681B685A68FB68EE
:1030FC001B6822F003025A60FB685B6D43F0100200
:10310C00FB685A65FB68012283F85120F868FFF7C9
:10311C00C4FE00BF1037BD4680BD80B584B000AF83
:10312C0078607B685B6AFB60FB680022DA87FB686F
:10313C000022DA86F868FFF7B0FE00BF1037BD46F4
:10314C0080BD000080B588B000AFF860B9603B600E
:10315C001346FB71FDF7CCFF0246BB6A9B1A3A681B
:10316C001344FB61FDF7C4FFB861394B1B685B016D
:10317C001B0DFA6902FB03F37B6154E03B68B3F16E
:10318C00FF3F50D0FDF7B4FF0246BB69D31AFA6972
:10319C009A4202D9FB69002B3DD1FB681B685A6827
:1031AC00FB681B6822F0E0025A60FB685B68B3F5B1
:1031BC00827F11D1FB689B68B3F5004F04D0FB688C
:1031CC009B68B3F5806F07D1FB681B681A68FB68B6
:1031DC001B6822F040021A60FB689B6AB3F5005F23
:1031EC000FD1FB681B681A68FB681B6822F400523D
:1031FC001A60FB681B681A68FB681B6842F4005273
:10320C001A60FB68012283F85120FB68002283F8C6
:10321C005020032317E07B69002B01D10023FB61B5
:10322C007B69013B7B61FB681B689A68BB68134038
:10323C00BA689A420CBF01230023DBB21A46FB7911
:10324C009A429BD1002318462037BD4680BD00BF53
:10325C000400002080B586B002AFF860B9607A60D7
:10326C00FB685B68B3F5827F11D1FB689B68B3F593
:10327C00004F04D0FB689B68B3F5806F07D1FB68E7
:10328C001B681A68FB681B6822F040021A60FB6816
:10329C005B68B3F5827F17D1FB689B68B3F5806FD1
:1032AC0012D17B680093BB6800220121F868FFF7FC
:1032BC0049FF0346002B1AD0FB685B6D43F02002DC
:1032CC00FB685A65032313E07B680093BB680022FC
:1032DC008021F868FFF736FF0346002B07D0FB6808
:1032EC005B6D43F02002FB685A65032300E000236A
:1032FC0018461037BD4680BD80B586B002AFF86069
:10330C00B9607A607B680093BB6800228021F86802
:10331C00FFF718FF0346002B07D0FB685B6D43F0EB
:10332C002002FB685A65032300E00023184610377F
:10333C00BD4680BD80B485B000AF78600023FB60D3
:10334C001D4B1B681D4AA2FB03235B0A642202FB74
:10335C0003F3BB60BB68002B06D17B685B6D43F04D
:10336C0040027B685A6509E0BB68013BBB607B6827
:10337C001B689B6803F00203002BEBD07B681B6877
:10338C001A687B681B6822F040021A607B681B6815
:10339C005A687B681B6822F0E0025A607B681B68E5
:1033AC00DB68FB60FB687B68072283F8512000BF59
:1033BC001437BD4680BC704704000020F119760517
:1033CC0080B483B000AF78607B681B685A687B68F8
:1033DC001B6822F080025A607B681B681A687B6845
:1033EC001B6822F040021A607B68072283F8512088
:1033FC0000BF0C37BD4680BC704700000C480D491F
:10340C000D4A002302E0D458C4500433C4188C4233
:10341C00F9D30A4A0A4C002301E013600432A24299
:10342C00FBD3FDF71BFC00F017F8FDF7C3F8704752
:10343C0000000020140000209C380008140000201C
:10344C00D8230020FEE703460244934200D1704784
:10345C0003F8011BF9E7000070B500260C4D0D4C6C
:10346C00641BA410A64209D100F01AF800260A4DDC
:10347C000A4C641BA410A64205D170BD55F8043B40
:10348C0098470136EEE755F8043B98470136F2E7CA
:10349C0094380008943800089438000898380008CC
:1034AC00F8B500BFF8BC08BC9E467047F8B500BF25
:0834BC00F8BC08BC9E467047F5
:1034C40002030405060708090A0B0C0D0E0F101061
:1034D4000807060504030201001213141516171831
:1034E400191A1B1C1D1E1F2021222311100F0E0D43
:1034F4000C0B0A092E2D2C2B2A29282726252400DB
:10350400000000000000000000FF000000FF0000B9
:103514000000FFFF0000FF00000000FF00FF0000AC
:10352400FFFF000000FFFFFF00FF00000000FF009E
:1035340000FF00FF00FF0000FF00FFFF00FFFF008F
:103544000000FFFF00FF00FFFFFF0000FFFFFFFF81
:10355400FF00000000FF000000FFFF0000FF00FF6D
:103564000000FFFFFF00FF0000FF00FF00FFFF005F
:10357400FFFF00FF00FFFFFFFFFF000000FFFF0051
:1035840000FFFFFF00FF00FFFF00FFFFFFFFFF0042
:1035940000FFFFFF00FFFFFFFFFF00FFFFFFFFFF34
:1035A4000000000000F0000F00000FF000F0000029
:1035B400F0F000FF0000FFF00F00000F00F00F0F0D
:1035C400000F0FF00FF0000FF0F00FFF000FFFF0EF
:1035D400F00000F000F0F00F00F00FF0F0F000F059
:1035E400F0F0F0FF00F0FFF0FF0000FF00F0FF0F2D
:1035F40000FF0FF0FFF000FFF0F0FFFF00FFFFF00F
:10360400000000F0F0F0000000F0FFF00F00000FE9
:1036140000F0F0FFF0F000F000F00FFF00F00F0FEB
:103624000F0F00F0000FFF00FFF000F000F00F009C
:10363400FFF0000FF000FFFF000FFF0FF00FF0008E
:103644000F0F00F0FFF0F000FF0FF000F000FF009C
:10365400FF00F00FF00FFF0F00F0FFF00F00F0007D
:1036640000FFF00FF00FFF0F000F00FFF0F00F0F3F
:103674000000F0FFF0F00F000FFF0FF00FFF00004D
:103684000000000FFF00000000F0F00F0F0000F03A
:10369400F0F0F00F0F0F00F00F0F0F0F00FF0F0FE0
:1036A4000F0F00F0000F00F0F00000FF0FF0F0F03B
:1036B4000F0000F00F00000F000F000F0F0F0F009E
:1036C4000F0FF0F0F00F0F00F00F0F0F0F00F0F0DE
:1036D400F00F0F0F0F0F000F0F0F0F000F0F0F0042
:1036E4000F00000F0F0F000FF0FF000F00F00F0F7F
:1036F4000000F00F00FF0F000F000F0F0F0F00006E
:1037040000000FFF0FFF000000F0F00F0F0000FF9C
:10371400F0F0F00F0F0F00F00F0F0FFF00F0FF0F8E
:103724000F0F00F0000F00F0FF0000F0F0F0FFF0CA
:103734000F0000FFFF0000F0000FF00F0F0F0F004D
:103744000F0F0FF0FF0F0F00FF0F0F0F0F00F0F020
:10375400FF0FFF0F0F0FFF0F0F0F0F000F0F0F0FB4
:103764000F0FF00F0F0FF00F0F0F000F00F00FF0FF
:103774000000F00F00F0FF000FFF0F0F0F0F00000D
:103784000000000FFF00000000F0F00F0F0000F039
:10379400F0F0F00F0F0F00F00F0F0F0000F00F0FFD
:1037A4000F0F00F0000F00F0F00000F000F0F0F058
:1037B4000F0000F00F000F00000F000FF00FF000DB
:1037C4000F0F00F0F00F0F00F00FF00F0F00FF00CD
:1037D400F00F0F0FF0000F0F0F0F0F000F0F0F0060
:1037E4000F00F00FF00F000F000F000F00F00F0F8D
:1037F4000000F00F00F00F00000F0FF00F0F00009B
:10380400000000F0F0F0000000F0FFF00FFF00F007
:10381400F0FFF00F00F000FFF0F00F0000F00F0FCA
:10382400FF0FF0FF000FFF00F00000F000F0F0F0D9
:103834000F0000F00F00FFFF000FFF0F0F0F0F002E
:103844000F0F00F0F000F000F00F0F00F000F0F0A8
:10385400FF0F0F0F0F0FFF0FF0F00F000FF0F0002E
:1038640000FFF00F0F0FFF0F000F000F00FF0F0FEF
:103874000000FF0F00F00F000FFF0F0F0FF0F0001C
:10388400000000000000000001020304060708090C
:0438940075010008B2
:043898004D010008D6
:10389C00010000000024F4004000000110000000B2
:0438AC000100000017
:0400000508003409B2
:00000001FF
